:100000000C94B1000C94CE000C94CE000C94CE0055
:100010000C94CE000C94CE000C94CE000C94CE0028
:100020000C94CE000C94CE000C94CE000C94CE0018
:100030000C94CE000C94CE000C94CE000C94CE0008
:100040000C94CE000C94CE000C94CE000C94CE00F8
:100050000C94CE000C94CE000C94CE000C94CE00E8
:100060000C94CE000C94CE0000407A10F35A00A0FD
:10007000724E18090010A5D4E80000E87648170071
:1000800000E40B54020000CA9A3B000000E1F505B1
:10009000000080969800000040420F000000A086FB
:1000A00001000000102700000000E803000000002D
:1000B0006400000000000A000000000001000000D1
:1000C00000002C76D888DC674F0823DFC1DFAE59EB
:1000D000E1B1B796E5E3E453C63AE651997696E87E
:1000E000E6C28426EB898C9B62ED407C6FFCEFBC02
:1000F0009C9F40F2BAA56FA5F490055A2AF75C932D
:100100006B6CF9676DC11BFCE0E40D47FEF520E662
:10011000B500D0ED902E0300943577050080841E45
:10012000080000204E0A000000C80C333333330FA0
:10013000986E12831141EF8D2114893BE65516CF3D
:10014000FEE6DB18D1844B381BF77C1D901DA4BB49
:10015000E424203284725E228100C9F124ECA1E5FE
:100160003D2711241FBECFEFD8E0DEBFCDBF11E089
:10017000A0E0B1E0E0E9F9E002C005900D92A03105
:10018000B107D9F721E0A0E1B1E001C01D92A6318D
:10019000B207E1F70E9413010C94C6040C9400000E
:1001A000E0ECF0E0908195FFFDCF8093C60080E009
:1001B00090E008951092C50083E38093C400E1ECC1
:1001C000F0E0808188618083E2ECF0E080818660ED
:1001D00080830895ECE7F0E0108280818064808362
:1001E000808180628083EAE7F0E08081806880839C
:1001F0008081808310927B000895CF93DF93FC0170
:100200002081222369F0DC011196E0ECF0E0C6ECDD
:10021000D0E0908195FFFDCF28832D912111F9CF5A
:10022000DF91CF910895CF93DF93CDB7DEB72997B4
:100230000FB6F894DEBF0FBECDBF14B880E091E0DA
:1002400090931301809312010E94DA000E94EA0049
:100250000F2EFAE7EF2EF12CF02D0F2EF8E7AF2E30
:10026000B12CF02D0F2EF9E7CF2ED12CF02D44E636
:1002700050E020E030E0F701808180648083F70166
:10028000808184FFFCCF808180618083F501808143
:10029000F601608190E0962B280F391F8FEC97E0D4
:1002A0000197F1F700C000004150510921F7ADEC72
:1002B000BCEC0E94BB01969587959695879596957F
:1002C0008795BC0180E090E00E947E018E010F5F67
:1002D0001F4F21E043E00E94CA0183B1837029F0DF
:1002E00080E390E00E94EA0104C0CE0101960E94E2
:1002F000FD008EE091E00E94F101B9CFE89409C0C1
:1003000097FB3EF490958095709561957F4F8F4F48
:100310009F4F9923A9F0F92F96E9BB279395F6955E
:10032000879577956795B795F111F8CFFAF4BB0FDC
:1003300011F460FF1BC06F5F7F4F8F4F9F4F16C040
:10034000882311F096E911C0772321F09EE8872FCA
:10035000762F05C0662371F096E8862F70E060E086
:100360002AF09A95660F771F881FDAF7880F9695FF
:10037000879597F90895A29FB001B39FC001A39FED
:10038000700D811D1124911DB29F700D811D1124CE
:10039000911D0895EF920F931F93CF93DF93E80180
:1003A00047FD02C034E001C034E1042E000C550BBF
:1003B00057FF03C0519541955109E32E022F242F79
:1003C000AE010E942102CE01DF91CF911F910F91CA
:1003D000EF90089560911201709113010E945304EF
:1003E00008950F931F93CF93DF93E0911201F09143
:1003F0001301238121FF1BC08C01D0E0C0E0F80174
:1004000081918F016091120170911301DB011896A7
:10041000ED91FC911997882331F00995892B79F397
:10042000DFEFCFEFECCF8AE00995892B19F08FEF42
:100430009FEF02C08D2F9C2FDF91CF911F910F91C5
:100440000895A9E0B0E0E7E2F2E00C9495046A01B7
:10045000122FB02E2BE3201720F0FF24F394F00E80
:1004600002C02CE3F22E0F2D27E0AE014F5F5F4F4D
:100470000E947B03BC014981842F8970813031F057
:10048000E1FC06C0E0FE06C090E205C09DE203C0AC
:100490009BE201C090E05E2D507143FF3CC0911182
:1004A00002C083E001C084E0811718F4212F281BCB
:1004B00001C020E051110BC0F601822F30E28823E9
:1004C00019F031938150FBCFC20ED11C20E099234B
:1004D00029F0D6019C93F60131966F01C60103966F
:1004E000E2FE0AC03EE4D6013C9341E411964C93EF
:1004F000119712963C9306C03EE6F601308341E622
:1005000041833283FC01322F40E2332309F442C09D
:1005100041933150FACF42FF44C0911102C083E0B1
:1005200001C084E0811718F4212F281B01C020E0AE
:1005300051110BC0F601822F30E2882319F031935C
:100540008150FBCFC20ED11C20E0992329F0D601A7
:100550009C93F60131966F01C6010396E2FE0BC033
:1005600039E4D6013C933EE411963C93119736E46E
:1005700012963C9307C039E6F60130833EE631839C
:1005800036E63283FC01322F40E2332319F04193E7
:100590003150FBCFFC01E20FF11D10828EEF9FEF77
:1005A000A6C021E030E0911102C020E030E0161634
:1005B00017061CF4FB01319602C0E1E0F0E02E0FBB
:1005C0003F1FBB2021F0EB2DF0E0319602C0E0E0B0
:1005D000F0E02E0F3F1FE12FF0E02E173F071CF435
:1005E000121B212F01C020E08E2D887159F4F601D5
:1005F000822F30E2882319F031938150FBCFC20E55
:10060000D11C20E0992329F0D6019C93F601319664
:100610006F0151110BC0F601822F90E3882319F06E
:1006200091938150FBCFC20ED11C20E00F2D060FFD
:100630009A81342F307144FF03C0913309F4015083
:10064000101624F4093018F008E001C001E0AB01F5
:1006500077FF02C040E050E0FB01E41BF50BA1E096
:10066000B0E0AC0FBD1FEA0FFB1F8EE2A82E4B01BE
:10067000801A91080B2D10E01195019511094F3F3B
:10068000BFEF5B0721F4D601AC9211966D016417A0
:1006900075072CF08416950614F4818101C080E35F
:1006A000415051093196D60111967D0140175107ED
:1006B00024F0D6018C936701E2CF6417750739F4F3
:1006C000963320F4953319F4311101C081E3F6011A
:1006D0008083F701822F90E2882319F09193815053
:1006E000FBCFF701E20FF11D108280E090E0299628
:1006F000ECE00C94B104283008F027E03327DA014D
:10070000990F311D87FD916000966105710539F4DF
:1007100032602E5F3D9330E32A95E1F708959F3FC5
:1007200030F080387105610509F03C5F3C5F3D9316
:10073000913008F08068911DDF93CF931F930F9342
:10074000FF92EF92192F987F9695E92F969596959F
:10075000E90FFF27EE53FF4F99273327EE24FF249D
:10076000A701E70105900894079428F4360FE71EC7
:10077000F81E491F511D660F771F881F991F069489
:10078000A1F70590079428F4E70EF81E491F561F9D
:10079000C11D770F881F991F661F0694A1F705904A
:1007A000079428F4F80E491F561FC71FD11D880F44
:1007B000991F661F771F0694A1F70590079420F4F0
:1007C000490F561FC71FD81F990F661F771F881F15
:1007D0000694A9F784911095177041F0D695C795A6
:1007E00057954795F794E7941A95C1F7E8E6F0E036
:1007F00068941590159135916591959105907FE2DA
:100800007395E118F10A430B560BC90BD009C0F7D9
:10081000E10CF11E431F561FC91FD01D7EF470331B
:1008200011F48A95E6CFE894015030F0080F0AF4ED
:100830000027021708F4202F2395022F7A3328F07F
:1008400079E37D932A95E9F710C07D932A9589F67F
:10085000069497956795379517951794E118F10ABF
:10086000430B560BC90BD00998F023957E917395D5
:100870007A3308F070E37C932013B8F77E917061AF
:100880007D9330F0839571E37D9370E32A95E1F7D2
:100890001124EF90FF900F911F91CF91DF91992735
:1008A00087FD909508950F931F93CF93DF93FB01DE
:1008B000238121FD03C08FEF9FEF2CC022FF16C0C4
:1008C00046815781248135814217530744F4A08122
:1008D000B1819D012F5F3F4F318320838C9326810F
:1008E00037812F5F3F4F3783268314C08B01EC0184
:1008F000FB010084F185E02D0995892BE1F6D801F3
:1009000016968D919C911797019617969C938E93AE
:100910001697CE01DF91CF911F910F9108952F92DD
:100920003F924F925F926F927F928F929F92AF927F
:10093000BF92CF92DF92EF92FF920F931F93CF93CC
:10094000DF93CDB7DEB7CA1BDB0B0FB6F894DEBF63
:100950000FBECDBF09942A88398848885F846E8489
:100960007D848C849B84AA84B984C884DF80EE80D3
:10097000FD800C811B81AA81B981CE0FD11D0FB6DC
:10098000F894DEBF0FBECDBFED010895F894FFCF00
:100990000000000200000000D000000000000D0078
:00000001FF
